:100000000C9438000C9499000C9442000C9442001B
:100010000C9442000C9442000C9442000C94420058
:100020000C9442000C9442000C9442000C94420048
:100030000C9442000C9442000C9442000C94420038
:100040000C9442000C9442000C9442000C94580012
:100050000C9442000C9442000C9442000C94420018
:100060000C9442000C9442000C9442000C94420008
:1000700011241FBECFEFD4E0DEBFCDBF0E94E6004B
:100080000C94EC000C940000A09AA19AA29AA39A56
:100090001ABA08950895089590BD89B988E18AB97A
:1000A000579A86E880BD08955D9BFECF8CB9089570
:1000B0001F920F920FB60F9211242F933F934F93DD
:1000C0005F936F937F938F939F93AF93BF93EF93C0
:1000D000FF938CB10E945400FF91EF91BF91AF91BB
:1000E0009F918F917F916F915F914F913F912F9150
:1000F0000F900FBE0F901F901895CF93DF9300D0F5
:10010000CDB7DEB70FC01A82198206C029813A81A5
:100110002F5F3F4F3A83298329813A812D32310560
:10012000A9F781508111EFCF0F900F90DF91CF9100
:1001300008951F920F920FB60F9211242F933F93A1
:100140004F935F936F937F938F939F93AF93BF93DF
:10015000EF93FF9384E60E947D0084E60E947D0079
:1001600084E60E947D0084E60E947D0084E60E9471
:100170007D0084E60E947D0084E60E947D0084E686
:100180000E947D0084E60E947D0084E60E947D003E
:100190008FEF0E945400FF91EF91BF91AF919F911B
:1001A0008F917F916F915F914F913F912F910F9020
:1001B0000FBE0F901F901895AB98A89AAA9AA99A6B
:1001C000AB9A8AE00E947D00AB9808950E9444009B
:0C01D0000E94DC007894FFCFF894FFCF71
:00000001FF
